{
  "_format": "hh-sol-artifact-1",
  "contractName": "Lottery",
  "sourceName": "contracts/Lottery.sol",
  "abi": [
    {
      "inputs": [
        {
          "internalType": "address",
          "name": "vrfCoordinatorV2",
          "type": "address"
        },
        {
          "internalType": "bytes32",
          "name": "gasLane",
          "type": "bytes32"
        },
        {
          "internalType": "uint64",
          "name": "subscriptionId",
          "type": "uint64"
        },
        {
          "internalType": "uint32",
          "name": "callbackGasLimit",
          "type": "uint32"
        },
        {
          "internalType": "uint256",
          "name": "ticketPrice",
          "type": "uint256"
        },
        {
          "internalType": "uint256",
          "name": "playersRequired",
          "type": "uint256"
        }
      ],
      "stateMutability": "nonpayable",
      "type": "constructor"
    },
    {
      "inputs": [
        {
          "internalType": "address",
          "name": "have",
          "type": "address"
        },
        {
          "internalType": "address",
          "name": "want",
          "type": "address"
        }
      ],
      "name": "OnlyCoordinatorCanFulfill",
      "type": "error"
    },
    {
      "inputs": [],
      "name": "alreadyEmpty",
      "type": "error"
    },
    {
      "inputs": [],
      "name": "illegalTicketPrice",
      "type": "error"
    },
    {
      "inputs": [],
      "name": "noWinnerPresent",
      "type": "error"
    },
    {
      "inputs": [
        {
          "internalType": "uint256",
          "name": "playersCount",
          "type": "uint256"
        },
        {
          "internalType": "uint256",
          "name": "playersRequired",
          "type": "uint256"
        }
      ],
      "name": "notEnoughPlayersToPickWinner",
      "type": "error"
    },
    {
      "inputs": [],
      "name": "notOpen",
      "type": "error"
    },
    {
      "inputs": [
        {
          "internalType": "uint256",
          "name": "amount",
          "type": "uint256"
        }
      ],
      "name": "sendMoreETHToBuyTicket",
      "type": "error"
    },
    {
      "inputs": [],
      "name": "transferFailed",
      "type": "error"
    },
    {
      "anonymous": false,
      "inputs": [
        {
          "indexed": false,
          "internalType": "uint256",
          "name": "prize",
          "type": "uint256"
        },
        {
          "indexed": false,
          "internalType": "address",
          "name": "from",
          "type": "address"
        }
      ],
      "name": "BuyTicket",
      "type": "event"
    },
    {
      "anonymous": false,
      "inputs": [
        {
          "indexed": false,
          "internalType": "enum Lottery.LotteryStatus",
          "name": "lotteryStatus",
          "type": "uint8"
        }
      ],
      "name": "LotteryCalculating",
      "type": "event"
    },
    {
      "anonymous": false,
      "inputs": [
        {
          "indexed": true,
          "internalType": "address",
          "name": "previousOwner",
          "type": "address"
        },
        {
          "indexed": true,
          "internalType": "address",
          "name": "newOwner",
          "type": "address"
        }
      ],
      "name": "OwnershipTransferred",
      "type": "event"
    },
    {
      "anonymous": false,
      "inputs": [
        {
          "indexed": false,
          "internalType": "uint256",
          "name": "prize",
          "type": "uint256"
        }
      ],
      "name": "PrizeToTransfer",
      "type": "event"
    },
    {
      "anonymous": false,
      "inputs": [
        {
          "indexed": false,
          "internalType": "address",
          "name": "winner",
          "type": "address"
        }
      ],
      "name": "PrizeTransfered",
      "type": "event"
    },
    {
      "anonymous": false,
      "inputs": [
        {
          "indexed": false,
          "internalType": "uint256",
          "name": "requestId",
          "type": "uint256"
        },
        {
          "indexed": false,
          "internalType": "uint256[]",
          "name": "randomWords",
          "type": "uint256[]"
        }
      ],
      "name": "RandomWords",
      "type": "event"
    },
    {
      "anonymous": false,
      "inputs": [
        {
          "indexed": false,
          "internalType": "enum Lottery.LotteryStatus",
          "name": "lotteryStatus",
          "type": "uint8"
        },
        {
          "indexed": false,
          "internalType": "address payable[]",
          "name": "s_players",
          "type": "address[]"
        }
      ],
      "name": "RestartLottery",
      "type": "event"
    },
    {
      "anonymous": false,
      "inputs": [
        {
          "indexed": false,
          "internalType": "uint256",
          "name": "price",
          "type": "uint256"
        },
        {
          "indexed": false,
          "internalType": "enum Lottery.LotteryStatus",
          "name": "lotteryStatus",
          "type": "uint8"
        },
        {
          "indexed": false,
          "internalType": "uint256",
          "name": "playersRequired",
          "type": "uint256"
        }
      ],
      "name": "StartLottery",
      "type": "event"
    },
    {
      "anonymous": false,
      "inputs": [
        {
          "indexed": false,
          "internalType": "uint256",
          "name": "ticketPrice",
          "type": "uint256"
        }
      ],
      "name": "TicketPriceUpdated",
      "type": "event"
    },
    {
      "anonymous": false,
      "inputs": [
        {
          "indexed": false,
          "internalType": "uint256",
          "name": "playersRequired",
          "type": "uint256"
        }
      ],
      "name": "UpdatePlayersRequired",
      "type": "event"
    },
    {
      "anonymous": false,
      "inputs": [
        {
          "indexed": true,
          "internalType": "address",
          "name": "player",
          "type": "address"
        }
      ],
      "name": "WinnerPicked",
      "type": "event"
    },
    {
      "inputs": [],
      "name": "buyTicket",
      "outputs": [],
      "stateMutability": "payable",
      "type": "function"
    },
    {
      "inputs": [],
      "name": "getLotteryStatus",
      "outputs": [
        {
          "internalType": "enum Lottery.LotteryStatus",
          "name": "",
          "type": "uint8"
        }
      ],
      "stateMutability": "view",
      "type": "function"
    },
    {
      "inputs": [],
      "name": "getNumberOfPlayers",
      "outputs": [
        {
          "internalType": "uint256",
          "name": "",
          "type": "uint256"
        }
      ],
      "stateMutability": "view",
      "type": "function"
    },
    {
      "inputs": [
        {
          "internalType": "uint256",
          "name": "index",
          "type": "uint256"
        }
      ],
      "name": "getPlayer",
      "outputs": [
        {
          "internalType": "address",
          "name": "",
          "type": "address"
        }
      ],
      "stateMutability": "view",
      "type": "function"
    },
    {
      "inputs": [],
      "name": "getPlayers",
      "outputs": [
        {
          "internalType": "address payable[]",
          "name": "",
          "type": "address[]"
        }
      ],
      "stateMutability": "view",
      "type": "function"
    },
    {
      "inputs": [],
      "name": "getPlayersRequired",
      "outputs": [
        {
          "internalType": "uint256",
          "name": "",
          "type": "uint256"
        }
      ],
      "stateMutability": "view",
      "type": "function"
    },
    {
      "inputs": [],
      "name": "getPrize",
      "outputs": [
        {
          "internalType": "uint256",
          "name": "",
          "type": "uint256"
        }
      ],
      "stateMutability": "view",
      "type": "function"
    },
    {
      "inputs": [],
      "name": "getRandomWinner",
      "outputs": [],
      "stateMutability": "nonpayable",
      "type": "function"
    },
    {
      "inputs": [],
      "name": "getTicketPrice",
      "outputs": [
        {
          "internalType": "uint256",
          "name": "",
          "type": "uint256"
        }
      ],
      "stateMutability": "view",
      "type": "function"
    },
    {
      "inputs": [],
      "name": "getWinner",
      "outputs": [
        {
          "internalType": "address",
          "name": "",
          "type": "address"
        }
      ],
      "stateMutability": "view",
      "type": "function"
    },
    {
      "inputs": [],
      "name": "owner",
      "outputs": [
        {
          "internalType": "address",
          "name": "",
          "type": "address"
        }
      ],
      "stateMutability": "view",
      "type": "function"
    },
    {
      "inputs": [
        {
          "internalType": "uint256",
          "name": "requestId",
          "type": "uint256"
        },
        {
          "internalType": "uint256[]",
          "name": "randomWords",
          "type": "uint256[]"
        }
      ],
      "name": "rawFulfillRandomWords",
      "outputs": [],
      "stateMutability": "nonpayable",
      "type": "function"
    },
    {
      "inputs": [],
      "name": "renounceOwnership",
      "outputs": [],
      "stateMutability": "nonpayable",
      "type": "function"
    },
    {
      "inputs": [
        {
          "internalType": "uint256",
          "name": "playersRequired",
          "type": "uint256"
        }
      ],
      "name": "setPlayersRquired",
      "outputs": [],
      "stateMutability": "nonpayable",
      "type": "function"
    },
    {
      "inputs": [
        {
          "internalType": "uint256",
          "name": "ticketPrice",
          "type": "uint256"
        }
      ],
      "name": "setTicketPrice",
      "outputs": [],
      "stateMutability": "nonpayable",
      "type": "function"
    },
    {
      "inputs": [
        {
          "internalType": "address",
          "name": "newOwner",
          "type": "address"
        }
      ],
      "name": "transferOwnership",
      "outputs": [],
      "stateMutability": "nonpayable",
      "type": "function"
    },
    {
      "inputs": [],
      "name": "transferPrize",
      "outputs": [],
      "stateMutability": "nonpayable",
      "type": "function"
    }
  ],
  "bytecode": "0x6101206040523480156200001257600080fd5b506040516200225c3803806200225c8339818101604052810190620000389190620003c9565b858073ffffffffffffffffffffffffffffffffffffffff1660808173ffffffffffffffffffffffffffffffffffffffff1681525050506200008e620000826200015560201b60201c565b6200015d60201b60201c565b81600181905550806002819055506000600460146101000a81548160ff02191690836001811115620000c557620000c462000465565b5b02179055508573ffffffffffffffffffffffffffffffffffffffff1660a08173ffffffffffffffffffffffffffffffffffffffff16815250508460c081815250508367ffffffffffffffff1660e08167ffffffffffffffff16815250508263ffffffff166101008163ffffffff16815250506200014982826200022160201b60201c565b50505050505062000533565b600033905090565b60008060009054906101000a900473ffffffffffffffffffffffffffffffffffffffff169050816000806101000a81548173ffffffffffffffffffffffffffffffffffffffff021916908373ffffffffffffffffffffffffffffffffffffffff1602179055508173ffffffffffffffffffffffffffffffffffffffff168173ffffffffffffffffffffffffffffffffffffffff167f8be0079c531659141344cd1fd0a4f28419497f9722a3daafe3b4186f6b6457e060405160405180910390a35050565b7f0760b8889cf8e7362de68dce721ac0ee5a8bd290c87d7c5344e3bd7706cbc3ae826000836040516200025793929190620004f6565b60405180910390a15050565b600080fd5b600073ffffffffffffffffffffffffffffffffffffffff82169050919050565b6000620002958262000268565b9050919050565b620002a78162000288565b8114620002b357600080fd5b50565b600081519050620002c7816200029c565b92915050565b6000819050919050565b620002e281620002cd565b8114620002ee57600080fd5b50565b6000815190506200030281620002d7565b92915050565b600067ffffffffffffffff82169050919050565b620003278162000308565b81146200033357600080fd5b50565b60008151905062000347816200031c565b92915050565b600063ffffffff82169050919050565b62000368816200034d565b81146200037457600080fd5b50565b60008151905062000388816200035d565b92915050565b6000819050919050565b620003a3816200038e565b8114620003af57600080fd5b50565b600081519050620003c38162000398565b92915050565b60008060008060008060c08789031215620003e957620003e862000263565b5b6000620003f989828a01620002b6565b96505060206200040c89828a01620002f1565b95505060406200041f89828a0162000336565b94505060606200043289828a0162000377565b93505060806200044589828a01620003b2565b92505060a06200045889828a01620003b2565b9150509295509295509295565b7f4e487b7100000000000000000000000000000000000000000000000000000000600052602160045260246000fd5b6200049f816200038e565b82525050565b60028110620004b957620004b862000465565b5b50565b6000819050620004cc82620004a5565b919050565b6000620004de82620004bc565b9050919050565b620004f081620004d1565b82525050565b60006060820190506200050d600083018662000494565b6200051c6020830185620004e5565b6200052b604083018462000494565b949350505050565b60805160a05160c05160e05161010051611cdd6200057f60003960006106a601526000610683015260006106620152600061062601526000818161041201526104660152611cdd6000f3fe6080604052600436106100fe5760003560e01c80638da5cb5b11610095578063e55ae4e811610064578063e55ae4e8146102d9578063ea8c50c614610316578063edca914c1461032d578063f2fde38b14610337578063fd6673f514610360576100fe565b80638da5cb5b1461022d5780638e7ea5b214610258578063c34f6b0d14610283578063d5249e23146102ae576100fe565b80636a876659116100d15780636a87665914610197578063715018a6146101c057806387bb7ae0146101d75780638b5b9ccc14610202576100fe565b806315981650146101035780631fe543e31461012c5780632b6524cd146101555780636694f1a514610180575b600080fd5b34801561010f57600080fd5b5061012a60048036038101906101259190611232565b61038b565b005b34801561013857600080fd5b50610153600480360381019061014e91906113b8565b610410565b005b34801561016157600080fd5b5061016a6104d0565b604051610177919061148b565b60405180910390f35b34801561018c57600080fd5b506101956104e7565b005b3480156101a357600080fd5b506101be60048036038101906101b99190611232565b610757565b005b3480156101cc57600080fd5b506101d56107a0565b005b3480156101e357600080fd5b506101ec6107b4565b6040516101f991906114b5565b60405180910390f35b34801561020e57600080fd5b506102176107be565b60405161022491906115c0565b60405180910390f35b34801561023957600080fd5b5061024261084c565b60405161024f9190611603565b60405180910390f35b34801561026457600080fd5b5061026d610875565b60405161027a9190611603565b60405180910390f35b34801561028f57600080fd5b5061029861089f565b6040516102a591906114b5565b60405180910390f35b3480156102ba57600080fd5b506102c36108ea565b6040516102d091906114b5565b60405180910390f35b3480156102e557600080fd5b5061030060048036038101906102fb9190611232565b6108f4565b60405161030d9190611603565b60405180910390f35b34801561032257600080fd5b5061032b61093c565b005b610335610b6c565b005b34801561034357600080fd5b5061035e6004803603810190610359919061164a565b610cbe565b005b34801561036c57600080fd5b50610375610d42565b60405161038291906114b5565b60405180910390f35b610393610d4f565b600081116103cd576040517fd31df88100000000000000000000000000000000000000000000000000000000815260040160405180910390fd5b806001819055507f7429795511c1ec5ebcc0e6839095ec18f13fce25cdc7c90da9d8a016584a1dbe60015460405161040591906114b5565b60405180910390a150565b7f000000000000000000000000000000000000000000000000000000000000000073ffffffffffffffffffffffffffffffffffffffff163373ffffffffffffffffffffffffffffffffffffffff16146104c257337f00000000000000000000000000000000000000000000000000000000000000006040517f1cf993f40000000000000000000000000000000000000000000000000000000081526004016104b9929190611677565b60405180910390fd5b6104cc8282610dcd565b5050565b6000600460149054906101000a900460ff16905090565b6104ef610d4f565b6002546003805490501015610544576003805490506002546040517f1049bdef00000000000000000000000000000000000000000000000000000000815260040161053b9291906116a0565b60405180910390fd5b6000600181111561055857610557611414565b5b600460149054906101000a900460ff16600181111561057a57610579611414565b5b146105b1576040517f05835fed00000000000000000000000000000000000000000000000000000000815260040160405180910390fd5b6001600460146101000a81548160ff021916908360018111156105d7576105d6611414565b5b02179055507f3e8ee20ed6a9cf96ca45af43673864c60fbbea99cb16048f812b0669b97edc5c600460149054906101000a900460ff1660405161061a919061148b565b60405180910390a160007f000000000000000000000000000000000000000000000000000000000000000073ffffffffffffffffffffffffffffffffffffffff16635d3b1d307f00000000000000000000000000000000000000000000000000000000000000007f000000000000000000000000000000000000000000000000000000000000000060037f000000000000000000000000000000000000000000000000000000000000000060016040518663ffffffff1660e01b81526004016106e7959493929190611741565b602060405180830381600087803b15801561070157600080fd5b505af1158015610715573d6000803e3d6000fd5b505050506040513d601f19601f8201168201806040525081019061073991906117a9565b905061074481610e0a565b61074c61093c565b610754610f42565b50565b61075f610d4f565b806002819055507f27f1ac630ee463443a9c262a368d2fb802c61c0125c599efc7c553e05039e0398160405161079591906114b5565b60405180910390a150565b6107a8610d4f565b6107b26000611049565b565b6000600154905090565b6060600380548060200260200160405190810160405280929190818152602001828054801561084257602002820191906000526020600020905b8160009054906101000a900473ffffffffffffffffffffffffffffffffffffffff1673ffffffffffffffffffffffffffffffffffffffff16815260200190600101908083116107f8575b5050505050905090565b60008060009054906101000a900473ffffffffffffffffffffffffffffffffffffffff16905090565b6000600460009054906101000a900473ffffffffffffffffffffffffffffffffffffffff16905090565b60008060038054905011156108e25760004790506108da60646108cc604b8461110d90919063ffffffff16565b61112390919063ffffffff16565b9150506108e7565b600090505b90565b6000600254905090565b60006003828154811061090a576109096117d6565b5b9060005260206000200160009054906101000a900473ffffffffffffffffffffffffffffffffffffffff169050919050565b610944610d4f565b600061094e61089f565b90507fc50e90a1de448433e57f038cdceb18a2e33676a4c934a23aa1a4608d704653538160405161097f91906114b5565b60405180910390a1600081116109c1576040517fe465903e00000000000000000000000000000000000000000000000000000000815260040160405180910390fd5b600073ffffffffffffffffffffffffffffffffffffffff16600460009054906101000a900473ffffffffffffffffffffffffffffffffffffffff1673ffffffffffffffffffffffffffffffffffffffff161415610a4a576040517fdeb97ac400000000000000000000000000000000000000000000000000000000815260040160405180910390fd5b6000600460009054906101000a900473ffffffffffffffffffffffffffffffffffffffff1673ffffffffffffffffffffffffffffffffffffffff1682604051610a9290611836565b60006040518083038185875af1925050503d8060008114610acf576040519150601f19603f3d011682016040523d82523d6000602084013e610ad4565b606091505b5050905080610b0f576040517fe465903e00000000000000000000000000000000000000000000000000000000815260040160405180910390fd5b7ff9a803d02e24ab98f90758be8af7314f06701a6338c0df1e4da43ecc358b30f8600460009054906101000a900473ffffffffffffffffffffffffffffffffffffffff16604051610b609190611603565b60405180910390a15050565b600154341015610bb357346040517fbdb6cb95000000000000000000000000000000000000000000000000000000008152600401610baa91906114b5565b60405180910390fd5b60006001811115610bc757610bc6611414565b5b600460149054906101000a900460ff166001811115610be957610be8611414565b5b14610c20576040517f05835fed00000000000000000000000000000000000000000000000000000000815260040160405180910390fd5b6003339080600181540180825580915050600190039060005260206000200160009091909190916101000a81548173ffffffffffffffffffffffffffffffffffffffff021916908373ffffffffffffffffffffffffffffffffffffffff1602179055507f98b1ba5f454cea2e686f54332a7b0f31faa0ffe6644247ffb84185f75e029a523433604051610cb492919061184b565b60405180910390a1565b610cc6610d4f565b600073ffffffffffffffffffffffffffffffffffffffff168173ffffffffffffffffffffffffffffffffffffffff161415610d36576040517f08c379a0000000000000000000000000000000000000000000000000000000008152600401610d2d906118f7565b60405180910390fd5b610d3f81611049565b50565b6000600380549050905090565b610d57611139565b73ffffffffffffffffffffffffffffffffffffffff16610d7561084c565b73ffffffffffffffffffffffffffffffffffffffff1614610dcb576040517f08c379a0000000000000000000000000000000000000000000000000000000008152600401610dc290611963565b60405180910390fd5b565b7f3a3acc98a060e7247c1321bbab4a117cfd1490c7679a263098c6eb94ac03fef38282604051610dfe929190611a41565b60405180910390a15050565b6000811015610e45576040517fe465903e00000000000000000000000000000000000000000000000000000000815260040160405180910390fd5b600060038054905082610e589190611aa0565b905060038181548110610e6e57610e6d6117d6565b5b9060005260206000200160009054906101000a900473ffffffffffffffffffffffffffffffffffffffff16600460006101000a81548173ffffffffffffffffffffffffffffffffffffffff021916908373ffffffffffffffffffffffffffffffffffffffff160217905550600460009054906101000a900473ffffffffffffffffffffffffffffffffffffffff1673ffffffffffffffffffffffffffffffffffffffff167f5b690ec4a06fe979403046eaeea5b3ce38524683c3001f662c8b5a829632f7df60405160405180910390a25050565b600060038054905011610f81576040517f10ee4b8d00000000000000000000000000000000000000000000000000000000815260040160405180910390fd5b600067ffffffffffffffff811115610f9c57610f9b611275565b5b604051908082528060200260200182016040528015610fca5781602001602082028036833780820191505090505b5060039080519060200190610fe0929190611141565b506000600460146101000a81548160ff0219169083600181111561100757611006611414565b5b02179055507fbac5f226df9205877b86f5196961cda6eaef841d8d576d60ea7ddcd73acdc5ef6000600360405161103f929190611bbd565b60405180910390a1565b60008060009054906101000a900473ffffffffffffffffffffffffffffffffffffffff169050816000806101000a81548173ffffffffffffffffffffffffffffffffffffffff021916908373ffffffffffffffffffffffffffffffffffffffff1602179055508173ffffffffffffffffffffffffffffffffffffffff168173ffffffffffffffffffffffffffffffffffffffff167f8be0079c531659141344cd1fd0a4f28419497f9722a3daafe3b4186f6b6457e060405160405180910390a35050565b6000818361111b9190611c1c565b905092915050565b600081836111319190611c76565b905092915050565b600033905090565b8280548282559060005260206000209081019282156111ba579160200282015b828111156111b95782518260006101000a81548173ffffffffffffffffffffffffffffffffffffffff021916908373ffffffffffffffffffffffffffffffffffffffff16021790555091602001919060010190611161565b5b5090506111c791906111cb565b5090565b5b808211156111e45760008160009055506001016111cc565b5090565b6000604051905090565b600080fd5b600080fd5b6000819050919050565b61120f816111fc565b811461121a57600080fd5b50565b60008135905061122c81611206565b92915050565b600060208284031215611248576112476111f2565b5b60006112568482850161121d565b91505092915050565b600080fd5b6000601f19601f8301169050919050565b7f4e487b7100000000000000000000000000000000000000000000000000000000600052604160045260246000fd5b6112ad82611264565b810181811067ffffffffffffffff821117156112cc576112cb611275565b5b80604052505050565b60006112df6111e8565b90506112eb82826112a4565b919050565b600067ffffffffffffffff82111561130b5761130a611275565b5b602082029050602081019050919050565b600080fd5b600061133461132f846112f0565b6112d5565b905080838252602082019050602084028301858111156113575761135661131c565b5b835b81811015611380578061136c888261121d565b845260208401935050602081019050611359565b5050509392505050565b600082601f83011261139f5761139e61125f565b5b81356113af848260208601611321565b91505092915050565b600080604083850312156113cf576113ce6111f2565b5b60006113dd8582860161121d565b925050602083013567ffffffffffffffff8111156113fe576113fd6111f7565b5b61140a8582860161138a565b9150509250929050565b7f4e487b7100000000000000000000000000000000000000000000000000000000600052602160045260246000fd5b6002811061145457611453611414565b5b50565b600081905061146582611443565b919050565b600061147582611457565b9050919050565b6114858161146a565b82525050565b60006020820190506114a0600083018461147c565b92915050565b6114af816111fc565b82525050565b60006020820190506114ca60008301846114a6565b92915050565b600081519050919050565b600082825260208201905092915050565b6000819050602082019050919050565b600073ffffffffffffffffffffffffffffffffffffffff82169050919050565b6000611527826114fc565b9050919050565b6115378161151c565b82525050565b6000611549838361152e565b60208301905092915050565b6000602082019050919050565b600061156d826114d0565b61157781856114db565b9350611582836114ec565b8060005b838110156115b357815161159a888261153d565b97506115a583611555565b925050600181019050611586565b5085935050505092915050565b600060208201905081810360008301526115da8184611562565b905092915050565b60006115ed826114fc565b9050919050565b6115fd816115e2565b82525050565b600060208201905061161860008301846115f4565b92915050565b611627816115e2565b811461163257600080fd5b50565b6000813590506116448161161e565b92915050565b6000602082840312156116605761165f6111f2565b5b600061166e84828501611635565b91505092915050565b600060408201905061168c60008301856115f4565b61169960208301846115f4565b9392505050565b60006040820190506116b560008301856114a6565b6116c260208301846114a6565b9392505050565b6000819050919050565b6116dc816116c9565b82525050565b600067ffffffffffffffff82169050919050565b6116ff816116e2565b82525050565b600061ffff82169050919050565b61171c81611705565b82525050565b600063ffffffff82169050919050565b61173b81611722565b82525050565b600060a08201905061175660008301886116d3565b61176360208301876116f6565b6117706040830186611713565b61177d6060830185611732565b61178a6080830184611732565b9695505050505050565b6000815190506117a381611206565b92915050565b6000602082840312156117bf576117be6111f2565b5b60006117cd84828501611794565b91505092915050565b7f4e487b7100000000000000000000000000000000000000000000000000000000600052603260045260246000fd5b600081905092915050565b50565b6000611820600083611805565b915061182b82611810565b600082019050919050565b600061184182611813565b9150819050919050565b600060408201905061186060008301856114a6565b61186d60208301846115f4565b9392505050565b600082825260208201905092915050565b7f4f776e61626c653a206e6577206f776e657220697320746865207a65726f206160008201527f6464726573730000000000000000000000000000000000000000000000000000602082015250565b60006118e1602683611874565b91506118ec82611885565b604082019050919050565b60006020820190508181036000830152611910816118d4565b9050919050565b7f4f776e61626c653a2063616c6c6572206973206e6f7420746865206f776e6572600082015250565b600061194d602083611874565b915061195882611917565b602082019050919050565b6000602082019050818103600083015261197c81611940565b9050919050565b600081519050919050565b600082825260208201905092915050565b6000819050602082019050919050565b6119b8816111fc565b82525050565b60006119ca83836119af565b60208301905092915050565b6000602082019050919050565b60006119ee82611983565b6119f8818561198e565b9350611a038361199f565b8060005b83811015611a34578151611a1b88826119be565b9750611a26836119d6565b925050600181019050611a07565b5085935050505092915050565b6000604082019050611a5660008301856114a6565b8181036020830152611a6881846119e3565b90509392505050565b7f4e487b7100000000000000000000000000000000000000000000000000000000600052601260045260246000fd5b6000611aab826111fc565b9150611ab6836111fc565b925082611ac657611ac5611a71565b5b828206905092915050565b600081549050919050565b60008190508160005260206000209050919050565b60008160001c9050919050565b600073ffffffffffffffffffffffffffffffffffffffff82169050919050565b6000611b31611b2c83611af1565b611afe565b9050919050565b6000611b448254611b1e565b9050919050565b6000600182019050919050565b6000611b6382611ad1565b611b6d81856114db565b9350611b7883611adc565b8060005b83811015611bb057611b8d82611b38565b611b97888261153d565b9750611ba283611b4b565b925050600181019050611b7c565b5085935050505092915050565b6000604082019050611bd2600083018561147c565b8181036020830152611be48184611b58565b90509392505050565b7f4e487b7100000000000000000000000000000000000000000000000000000000600052601160045260246000fd5b6000611c27826111fc565b9150611c32836111fc565b9250817fffffffffffffffffffffffffffffffffffffffffffffffffffffffffffffffff0483118215151615611c6b57611c6a611bed565b5b828202905092915050565b6000611c81826111fc565b9150611c8c836111fc565b925082611c9c57611c9b611a71565b5b82820490509291505056fea26469706673582212201344c771e4a313962bb070370b2c310d5827c293cd09d0539f74814fbc18311f64736f6c63430008090033",
  "linkReferences": {},
  "deployedLinkReferences": {}
}